:1000000010C01FC01EC01DC01CC01BC01AC019C01C
:1000100018C017C016C03CC014C013C012C011C015
:1000200010C011241FBECFE5D2E0DEBFCDBF20E05F
:10003000A0E6B0E001C01D92A936B207E1F772D088
:10004000A1C0DECF3FB7F894809165009091660023
:10005000A0916700B091680022B708B600FE05C005
:100060002F3F19F00196A11DB11D3FBFBA2FA92F37
:10007000982F8827BC01CD01620F711D811D911D34
:1000800043E0660F771F881F991F4A95D1F708959F
:100090001F920F920FB60F9211242F933F938F93BD
:1000A0009F93AF93BF938091610090916200A09164
:1000B0006300B09164003091600026E0230F2D377B
:1000C00068F129E8230F0396A11DB11D209360005C
:1000D0008093610090936200A0936300B0936400EA
:1000E0008091650090916600A0916700B0916800D2
:1000F0000196A11DB11D8093650090936600A093A9
:100100006700B0936800BF91AF919F918F913F912D
:100110002F910F900FBE0F901F9018950296A11D62
:10012000B11DD4CF83E080BF83BF789499B791602D
:1001300099BF91E09FBD8EBD86E886B9B89A11E05F
:1001400016BB80DFEB0184EFC82EDD24D394E12CB5
:10015000F12C78DF6C1B7D0B683E734068F0C11496
:10016000D104E104F10461F381E0C81AD108E10887
:10017000F108C851DC4FEDCFC114D104E104F10402
:0801800041F7DECFF894FFCF38
:00000001FF
