:100000000EC01DC01CC01BC01AC040C018C017C005
:1000100016C015C014C013C012C011C010C01124E6
:100020001FBECFE5D2E0DEBFCDBF20E0A0E6B0E04E
:1000300001C01D92A936B207E1F772D0A4C0E0CF8B
:100040003FB7F8948091650090916600A091670099
:10005000B091680022B708B601FE05C02F3F19F025
:100060000196A11DB11D3FBFBA2FA92F982F882738
:10007000BC01CD01620F711D811D911D43E0660F12
:10008000771F881F991F4A95D1F708951F920F92E5
:100090000FB60F9211242F933F938F939F93AF939B
:1000A000BF938091610090916200A0916300B09134
:1000B00064003091600026E0230F2D3768F129E8B5
:1000C000230F0396A11DB11D209360008093610052
:1000D00090936200A0936300B093640080916500E8
:1000E00090916600A0916700B09168000196A11DF3
:1000F000B11D8093650090936600A0936700B09354
:100100006800BF91AF919F918F913F912F910F9078
:100110000FBE0F901F9018950296A11DB11DD4CF50
:1001200083E08ABD83BF789489B7826089BF80E409
:100130008CBD8FEF8DBD87EC80BF86E886B9B89AFD
:1001400011E016BB7DDFEB0184EFC82EDD24D394D4
:10015000E12CF12C75DF6C1B7D0B683E734068F061
:10016000C114D104E104F10461F381E0C81AD1089B
:10017000E108F108C851DC4FEDCFC114D104E1040E
:0A018000F10441F7DECFF894FFCF41
:00000001FF
